:1000000012C02CC02BC02AC029C028C027C026C0BF
:1000100025C024C023C022C021C020C01FC01EC0D4
:100020001DC01CC01BC011241FBECFE5D4E0DEBF25
:10003000CDBF10E0A0E6B0E0E2EDF2E002C0059036
:100040000D92AA36B107D9F710E0AAE6B0E001C0D8
:100050001D92AE36B107E1F774D039C1D1CFAF925E
:10006000BF92CF92DF92EF92FF920F931F93DF9395
:10007000CF93CDB7DEB762970FB6F894DEBF0FBE51
:10008000CDBFFE01319628E0DF011D922A95E9F7E8
:10009000DE011996E0E6F0E02AE001900D92215091
:1000A000E1F78E010F5F1F4F78012AE0A22EB12CDD
:1000B000C12CD12C09C0A6019501E7D0F7016193AD
:1000C00071937F01B901CA0161157105810591051F
:1000D00091F780E090E041E050E09E01275F3F4FC4
:1000E000E5B3BA01082E02C0660F771F0A94E2F743
:1000F000E62BE5BBD801ED91FD918D01E20FF31FD9
:10010000708172BBE7EEF3E03197F1F700C00000B9
:1001100075B36095672365BB01968430910501F73F
:1001200062960FB6F894DEBF0FBECDBFCF91DF91C0
:100130001F910F91FF90EF90DF90CF90BF90AF9005
:1001400008958FEF81BB82BB84BB85BB17BA88BB88
:10015000B0991CC080916A0090916B00A0916C00D6
:10016000B0916D000196A11DB11D80936A0090931E
:100170006B00A0936C00B0936D008FEF90E7A2E04E
:1001800081509040A040E1F700C00000B1991CC030
:1001900080916A0090916B00A0916C00B0916D000D
:1001A0000A96A11DB11D80936A0090936B00A093E5
:1001B0006C00B0936D008FEF90E7A2E0815090400B
:1001C000A040E1F700C00000B2991DC080916A0014
:1001D00090916B00A0916C00B0916D008C599F4F75
:1001E000AF4FBF4F80936A0090936B00A0936C0059
:1001F000B0936D008FEF90E7A2E081509040A04057
:10020000E1F700C00000B6991DC080916A0090918E
:100210006B00A0916C00B0916D0088519C4FAF4F66
:10022000BF4F80936A0090936B00A0936C00B093D3
:100230006D008FEF90E7A2E081509040A040E1F781
:1002400000C0000060916A0070916B0080916C00AA
:1002500090916D0004DF80916A0090916B00A091F5
:100260006C00B0916D00803127E2920720E0A20778
:1002700020E0B20708F46CCF10926A0010926B0075
:1002800010926C0010926D0063CFA1E21A2EAA1B8F
:10029000BB1BFD010DC0AA1FBB1FEE1FFF1FA21736
:1002A000B307E407F50720F0A21BB30BE40BF50B33
:1002B000661F771F881F991F1A9469F760957095BC
:1002C000809590959B01AC01BD01CF010895F894F4
:0202D000FFCF5E
:0A02D2004079243019120278001060
:00000001FF
